{
  "_format": "hh-sol-artifact-1",
  "contractName": "StETHAgentTreasury",
  "sourceName": "contracts/StETHAgentTreasury.sol",
  "abi": [
    {
      "inputs": [],
      "stateMutability": "nonpayable",
      "type": "constructor"
    },
    {
      "inputs": [],
      "name": "ReentrancyGuardReentrantCall",
      "type": "error"
    },
    {
      "anonymous": false,
      "inputs": [
        {
          "indexed": true,
          "internalType": "address",
          "name": "agent",
          "type": "address"
        },
        {
          "indexed": false,
          "internalType": "uint256",
          "name": "protectedAmount",
          "type": "uint256"
        }
      ],
      "name": "PrincipalProtected",
      "type": "event"
    },
    {
      "anonymous": false,
      "inputs": [
        {
          "indexed": true,
          "internalType": "address",
          "name": "agent",
          "type": "address"
        },
        {
          "indexed": false,
          "internalType": "uint256",
          "name": "initialDeposit",
          "type": "uint256"
        }
      ],
      "name": "TreasuryCreated",
      "type": "event"
    },
    {
      "anonymous": false,
      "inputs": [
        {
          "indexed": true,
          "internalType": "bytes32",
          "name": "requestId",
          "type": "bytes32"
        },
        {
          "indexed": false,
          "internalType": "address",
          "name": "to",
          "type": "address"
        },
        {
          "indexed": false,
          "internalType": "uint256",
          "name": "amount",
          "type": "uint256"
        }
      ],
      "name": "WithdrawalExecuted",
      "type": "event"
    },
    {
      "anonymous": false,
      "inputs": [
        {
          "indexed": true,
          "internalType": "bytes32",
          "name": "requestId",
          "type": "bytes32"
        },
        {
          "indexed": false,
          "internalType": "address",
          "name": "agent",
          "type": "address"
        },
        {
          "indexed": false,
          "internalType": "uint256",
          "name": "amount",
          "type": "uint256"
        },
        {
          "indexed": false,
          "internalType": "bool",
          "name": "isYield",
          "type": "bool"
        }
      ],
      "name": "WithdrawalRequested",
      "type": "event"
    },
    {
      "anonymous": false,
      "inputs": [
        {
          "indexed": true,
          "internalType": "address",
          "name": "agent",
          "type": "address"
        },
        {
          "indexed": false,
          "internalType": "uint256",
          "name": "yieldAmount",
          "type": "uint256"
        }
      ],
      "name": "YieldAccumulated",
      "type": "event"
    },
    {
      "inputs": [],
      "name": "MIN_PRINCIPAL",
      "outputs": [
        {
          "internalType": "uint256",
          "name": "",
          "type": "uint256"
        }
      ],
      "stateMutability": "view",
      "type": "function"
    },
    {
      "inputs": [],
      "name": "STETH",
      "outputs": [
        {
          "internalType": "address",
          "name": "",
          "type": "address"
        }
      ],
      "stateMutability": "view",
      "type": "function"
    },
    {
      "inputs": [],
      "name": "WSTETH",
      "outputs": [
        {
          "internalType": "address",
          "name": "",
          "type": "address"
        }
      ],
      "stateMutability": "view",
      "type": "function"
    },
    {
      "inputs": [
        {
          "internalType": "address",
          "name": "",
          "type": "address"
        },
        {
          "internalType": "uint256",
          "name": "",
          "type": "uint256"
        }
      ],
      "name": "agentWithdrawals",
      "outputs": [
        {
          "internalType": "bytes32",
          "name": "",
          "type": "bytes32"
        }
      ],
      "stateMutability": "view",
      "type": "function"
    },
    {
      "inputs": [
        {
          "internalType": "address",
          "name": "agent",
          "type": "address"
        },
        {
          "internalType": "uint256",
          "name": "initialDeposit",
          "type": "uint256"
        }
      ],
      "name": "createTreasury",
      "outputs": [],
      "stateMutability": "nonpayable",
      "type": "function"
    },
    {
      "inputs": [
        {
          "internalType": "bytes32",
          "name": "requestId",
          "type": "bytes32"
        },
        {
          "internalType": "address",
          "name": "to",
          "type": "address"
        }
      ],
      "name": "executeWithdrawal",
      "outputs": [],
      "stateMutability": "nonpayable",
      "type": "function"
    },
    {
      "inputs": [
        {
          "internalType": "address",
          "name": "agent",
          "type": "address"
        }
      ],
      "name": "getTreasuryInfo",
      "outputs": [
        {
          "internalType": "uint256",
          "name": "principal",
          "type": "uint256"
        },
        {
          "internalType": "uint256",
          "name": "yieldAccumulated",
          "type": "uint256"
        },
        {
          "internalType": "uint256",
          "name": "totalValue",
          "type": "uint256"
        },
        {
          "internalType": "bool",
          "name": "isActive",
          "type": "bool"
        }
      ],
      "stateMutability": "view",
      "type": "function"
    },
    {
      "inputs": [
        {
          "internalType": "address",
          "name": "agent",
          "type": "address"
        }
      ],
      "name": "getWithdrawalHistory",
      "outputs": [
        {
          "internalType": "bytes32[]",
          "name": "",
          "type": "bytes32[]"
        }
      ],
      "stateMutability": "view",
      "type": "function"
    },
    {
      "inputs": [],
      "name": "owner",
      "outputs": [
        {
          "internalType": "address",
          "name": "",
          "type": "address"
        }
      ],
      "stateMutability": "view",
      "type": "function"
    },
    {
      "inputs": [
        {
          "internalType": "address",
          "name": "agent",
          "type": "address"
        },
        {
          "internalType": "uint256",
          "name": "amount",
          "type": "uint256"
        }
      ],
      "name": "requestPrincipalWithdrawal",
      "outputs": [
        {
          "internalType": "bytes32",
          "name": "requestId",
          "type": "bytes32"
        }
      ],
      "stateMutability": "nonpayable",
      "type": "function"
    },
    {
      "inputs": [
        {
          "internalType": "address",
          "name": "agent",
          "type": "address"
        },
        {
          "internalType": "uint256",
          "name": "amount",
          "type": "uint256"
        }
      ],
      "name": "requestYieldWithdrawal",
      "outputs": [
        {
          "internalType": "bytes32",
          "name": "requestId",
          "type": "bytes32"
        }
      ],
      "stateMutability": "nonpayable",
      "type": "function"
    },
    {
      "inputs": [],
      "name": "totalTreasuryBalance",
      "outputs": [
        {
          "internalType": "uint256",
          "name": "",
          "type": "uint256"
        }
      ],
      "stateMutability": "view",
      "type": "function"
    },
    {
      "inputs": [],
      "name": "totalYieldGenerated",
      "outputs": [
        {
          "internalType": "uint256",
          "name": "",
          "type": "uint256"
        }
      ],
      "stateMutability": "view",
      "type": "function"
    },
    {
      "inputs": [
        {
          "internalType": "address",
          "name": "",
          "type": "address"
        }
      ],
      "name": "treasuries",
      "outputs": [
        {
          "internalType": "uint256",
          "name": "stETHBalance",
          "type": "uint256"
        },
        {
          "internalType": "uint256",
          "name": "yieldAccumulated",
          "type": "uint256"
        },
        {
          "internalType": "uint256",
          "name": "lastYieldUpdate",
          "type": "uint256"
        },
        {
          "internalType": "address",
          "name": "agent",
          "type": "address"
        },
        {
          "internalType": "bool",
          "name": "isActive",
          "type": "bool"
        }
      ],
      "stateMutability": "view",
      "type": "function"
    },
    {
      "inputs": [
        {
          "internalType": "address",
          "name": "agent",
          "type": "address"
        }
      ],
      "name": "updateYield",
      "outputs": [],
      "stateMutability": "nonpayable",
      "type": "function"
    },
    {
      "inputs": [],
      "name": "withdrawalCount",
      "outputs": [
        {
          "internalType": "uint256",
          "name": "",
          "type": "uint256"
        }
      ],
      "stateMutability": "view",
      "type": "function"
    },
    {
      "inputs": [
        {
          "internalType": "bytes32",
          "name": "",
          "type": "bytes32"
        }
      ],
      "name": "withdrawalRequests",
      "outputs": [
        {
          "internalType": "bytes32",
          "name": "id",
          "type": "bytes32"
        },
        {
          "internalType": "address",
          "name": "agent",
          "type": "address"
        },
        {
          "internalType": "uint256",
          "name": "amount",
          "type": "uint256"
        },
        {
          "internalType": "uint256",
          "name": "requestedAt",
          "type": "uint256"
        },
        {
          "internalType": "bool",
          "name": "isYield",
          "type": "bool"
        },
        {
          "internalType": "bool",
          "name": "executed",
          "type": "bool"
        }
      ],
      "stateMutability": "view",
      "type": "function"
    }
  ],
  "bytecode": "0x60806040523480156200001157600080fd5b50600162000034620000286200008260201b60201c565b620000ad60201b60201c565b6000018190555033600360006101000a81548173ffffffffffffffffffffffffffffffffffffffff021916908373ffffffffffffffffffffffffffffffffffffffff160217905550620000b7565b60007f9b779b17422d0df92223018b32b4d1fa46e071723d6817e2486d003becc55f0060001b905090565b6000819050919050565b61270680620000c76000396000f3fe608060405234801561001057600080fd5b506004361061010b5760003560e01c8063bb4fd58e116100a2578063db420d9f11610071578063db420d9f146102ee578063e00bfe501461030a578063ec4a59d914610328578063f1345e8014610346578063f90d63db146103765761010b565b8063bb4fd58e14610252578063c5c03f9314610282578063d030b551146102a0578063d9fb643a146102d05761010b565b80634f1eb129116100de5780634f1eb129146101c557806371706cbe146101f85780638c825056146102165780638da5cb5b146102345761010b565b80630849b23414610110578063124b82a5146101445780633114740e146101795780634d823831146101a9575b600080fd5b61012a60048036038101906101259190611af1565b610392565b60405161013b959493929190611b61565b60405180910390f35b61015e60048036038101906101599190611bea565b6103f5565b60405161017096959493929190611c26565b60405180910390f35b610193600480360381019061018e9190611af1565b61046b565b6040516101a09190611d45565b60405180910390f35b6101c360048036038101906101be9190611d67565b610571565b005b6101df60048036038101906101da9190611af1565b610935565b6040516101ef9493929190611da7565b60405180910390f35b610200610a24565b60405161020d9190611dec565b60405180910390f35b61021e610a2a565b60405161022b9190611dec565b60405180910390f35b61023c610a30565b6040516102499190611e07565b60405180910390f35b61026c60048036038101906102679190611e4e565b610a56565b6040516102799190611e8e565b60405180910390f35b61028a610a87565b6040516102979190611dec565b60405180910390f35b6102ba60048036038101906102b59190611e4e565b610a93565b6040516102c79190611e8e565b60405180910390f35b6102d8610e29565b6040516102e59190611e07565b60405180910390f35b61030860048036038101906103039190611e4e565b610e41565b005b6103126112c0565b60405161031f9190611e07565b60405180910390f35b6103306112d8565b60405161033d9190611dec565b60405180910390f35b610360600480360381019061035b9190611e4e565b6112de565b60405161036d9190611e8e565b60405180910390f35b610390600480360381019061038b9190611af1565b611754565b005b60006020528060005260406000206000915090508060000154908060010154908060020154908060030160009054906101000a900473ffffffffffffffffffffffffffffffffffffffff16908060030160149054906101000a900460ff16905085565b60016020528060005260406000206000915090508060000154908060010160009054906101000a900473ffffffffffffffffffffffffffffffffffffffff16908060020154908060030154908060040160009054906101000a900460ff16908060040160019054906101000a900460ff16905086565b6060600073ffffffffffffffffffffffffffffffffffffffff168273ffffffffffffffffffffffffffffffffffffffff16036104dc576040517f08c379a00000000000000000000000000000000000000000000000000000000081526004016104d390611f06565b60405180910390fd5b600260008373ffffffffffffffffffffffffffffffffffffffff1673ffffffffffffffffffffffffffffffffffffffff16815260200190815260200160002080548060200260200160405190810160405280929190818152602001828054801561056557602002820191906000526020600020905b815481526020019060010190808311610551575b50505050509050919050565b600360009054906101000a900473ffffffffffffffffffffffffffffffffffffffff1673ffffffffffffffffffffffffffffffffffffffff163373ffffffffffffffffffffffffffffffffffffffff1614610601576040517f08c379a00000000000000000000000000000000000000000000000000000000081526004016105f890611f72565b60405180910390fd5b6106096119bc565b600073ffffffffffffffffffffffffffffffffffffffff168173ffffffffffffffffffffffffffffffffffffffff1603610678576040517f08c379a000000000000000000000000000000000000000000000000000000000815260040161066f90611fde565b60405180910390fd5b6000600160008481526020019081526020016000209050828160000154146106d5576040517f08c379a00000000000000000000000000000000000000000000000000000000081526004016106cc9061204a565b60405180910390fd5b8060040160019054906101000a900460ff1615610727576040517f08c379a000000000000000000000000000000000000000000000000000000000815260040161071e906120b6565b60405180910390fd5b62015180816003015461073a9190612105565b42101561077c576040517f08c379a000000000000000000000000000000000000000000000000000000000815260040161077390612185565b60405180910390fd5b60018160040160016101000a81548160ff02191690831515021790555073ae7ab96520de3a18e5e111b5eaab095312d7fe8473ffffffffffffffffffffffffffffffffffffffff1663a9059cbb8383600201546040518363ffffffff1660e01b81526004016107ec9291906121a5565b6020604051808303816000875af115801561080b573d6000803e3d6000fd5b505050506040513d601f19601f8201168201806040525081019061082f91906121fa565b508060040160009054906101000a900460ff166108ea5760008060008360010160009054906101000a900473ffffffffffffffffffffffffffffffffffffffff1673ffffffffffffffffffffffffffffffffffffffff1673ffffffffffffffffffffffffffffffffffffffff168152602001908152602001600020905081600201548160000160008282546108c49190612227565b925050819055508160020154600460008282546108e19190612227565b92505081905550505b827f9b500c765f0aa508908d3e165168183a5cef5acd68573acc126ce58c80ac6b3c8383600201546040516109209291906121a5565b60405180910390a2506109316119df565b5050565b600080600080600073ffffffffffffffffffffffffffffffffffffffff168573ffffffffffffffffffffffffffffffffffffffff16036109aa576040517f08c379a00000000000000000000000000000000000000000000000000000000081526004016109a190611f06565b60405180910390fd5b60008060008773ffffffffffffffffffffffffffffffffffffffff1673ffffffffffffffffffffffffffffffffffffffff168152602001908152602001600020905080600001549450806001015493508385610a069190612105565b92508060030160149054906101000a900460ff169150509193509193565b60065481565b60055481565b600360009054906101000a900473ffffffffffffffffffffffffffffffffffffffff1681565b60026020528160005260406000208181548110610a7257600080fd5b90600052602060002001600091509150505481565b67016345785d8a000081565b6000600360009054906101000a900473ffffffffffffffffffffffffffffffffffffffff1673ffffffffffffffffffffffffffffffffffffffff163373ffffffffffffffffffffffffffffffffffffffff1614610b25576040517f08c379a0000000000000000000000000000000000000000000000000000000008152600401610b1c90611f72565b60405180910390fd5b600073ffffffffffffffffffffffffffffffffffffffff168373ffffffffffffffffffffffffffffffffffffffff1603610b94576040517f08c379a0000000000000000000000000000000000000000000000000000000008152600401610b8b90611f06565b60405180910390fd5b60008060008573ffffffffffffffffffffffffffffffffffffffff1673ffffffffffffffffffffffffffffffffffffffff168152602001908152602001600020905067016345785d8a0000838260000154610bef9190612227565b1015610c30576040517f08c379a0000000000000000000000000000000000000000000000000000000008152600401610c27906122a7565b60405180910390fd5b83834260065433604051602001610c4b9594939291906122c7565b6040516020818303038152906040528051906020012091506040518060c001604052808381526020018573ffffffffffffffffffffffffffffffffffffffff16815260200184815260200142815260200160001515815260200160001515815250600160008481526020019081526020016000206000820151816000015560208201518160010160006101000a81548173ffffffffffffffffffffffffffffffffffffffff021916908373ffffffffffffffffffffffffffffffffffffffff160217905550604082015181600201556060820151816003015560808201518160040160006101000a81548160ff02191690831515021790555060a08201518160040160016101000a81548160ff021916908315150217905550905050600260008573ffffffffffffffffffffffffffffffffffffffff1673ffffffffffffffffffffffffffffffffffffffff16815260200190815260200160002082908060018154018082558091505060019003906000526020600020016000909190919091505560066000815480929190610de09061231a565b9190505550817f9f10b53341042c740f503a270027101d06dbabbeffe6c595cc426f6fd4685d1a85856000604051610e1a93929190612362565b60405180910390a25092915050565b737f39c581f595b53c5cb19bd0b3f8da6c935e2ca081565b600360009054906101000a900473ffffffffffffffffffffffffffffffffffffffff1673ffffffffffffffffffffffffffffffffffffffff163373ffffffffffffffffffffffffffffffffffffffff1614610ed1576040517f08c379a0000000000000000000000000000000000000000000000000000000008152600401610ec890611f72565b60405180910390fd5b610ed96119bc565b600073ffffffffffffffffffffffffffffffffffffffff168273ffffffffffffffffffffffffffffffffffffffff1603610f48576040517f08c379a0000000000000000000000000000000000000000000000000000000008152600401610f3f90611f06565b60405180910390fd5b600073ffffffffffffffffffffffffffffffffffffffff166000808473ffffffffffffffffffffffffffffffffffffffff1673ffffffffffffffffffffffffffffffffffffffff16815260200190815260200160002060030160009054906101000a900473ffffffffffffffffffffffffffffffffffffffff1673ffffffffffffffffffffffffffffffffffffffff1614611018576040517f08c379a000000000000000000000000000000000000000000000000000000000815260040161100f906123e5565b60405180910390fd5b67016345785d8a0000811015611063576040517f08c379a000000000000000000000000000000000000000000000000000000000815260040161105a90612451565b60405180910390fd5b73ae7ab96520de3a18e5e111b5eaab095312d7fe8473ffffffffffffffffffffffffffffffffffffffff166323b872dd3330846040518463ffffffff1660e01b81526004016110b493929190612471565b6020604051808303816000875af11580156110d3573d6000803e3d6000fd5b505050506040513d601f19601f820116820180604052508101906110f791906121fa565b506040518060a00160405280828152602001600081526020014281526020018373ffffffffffffffffffffffffffffffffffffffff168152602001600115158152506000808473ffffffffffffffffffffffffffffffffffffffff1673ffffffffffffffffffffffffffffffffffffffff16815260200190815260200160002060008201518160000155602082015181600101556040820151816002015560608201518160030160006101000a81548173ffffffffffffffffffffffffffffffffffffffff021916908373ffffffffffffffffffffffffffffffffffffffff16021790555060808201518160030160146101000a81548160ff02191690831515021790555090505080600460008282546112119190612105565b925050819055508173ffffffffffffffffffffffffffffffffffffffff167f240dea6095d75c2ab619885ef444422f04090259dc92bbe4b73fdb59f598981a8260405161125e9190611dec565b60405180910390a28173ffffffffffffffffffffffffffffffffffffffff167fbfe3d76e2a11845c74601f77b79c8a0850a3e1425a617cbb80e78afa7897a449826040516112ac9190611dec565b60405180910390a26112bc6119df565b5050565b73ae7ab96520de3a18e5e111b5eaab095312d7fe8481565b60045481565b6000823373ffffffffffffffffffffffffffffffffffffffff166000808373ffffffffffffffffffffffffffffffffffffffff1673ffffffffffffffffffffffffffffffffffffffff16815260200190815260200160002060030160009054906101000a900473ffffffffffffffffffffffffffffffffffffffff1673ffffffffffffffffffffffffffffffffffffffff16146113b0576040517f08c379a00000000000000000000000000000000000000000000000000000000081526004016113a7906124f4565b60405180910390fd5b6000808273ffffffffffffffffffffffffffffffffffffffff1673ffffffffffffffffffffffffffffffffffffffff16815260200190815260200160002060030160149054906101000a900460ff1661143e576040517f08c379a000000000000000000000000000000000000000000000000000000000815260040161143590612560565b60405180910390fd5b600073ffffffffffffffffffffffffffffffffffffffff168473ffffffffffffffffffffffffffffffffffffffff16036114ad576040517f08c379a00000000000000000000000000000000000000000000000000000000081526004016114a490611f06565b60405180910390fd5b60008060008673ffffffffffffffffffffffffffffffffffffffff1673ffffffffffffffffffffffffffffffffffffffff16815260200190815260200160002090506114f885611754565b838160010154101561153f576040517f08c379a0000000000000000000000000000000000000000000000000000000008152600401611536906125cc565b60405180910390fd5b8484426006543360405160200161155a9594939291906122c7565b6040516020818303038152906040528051906020012092506040518060c001604052808481526020018673ffffffffffffffffffffffffffffffffffffffff16815260200185815260200142815260200160011515815260200160001515815250600160008581526020019081526020016000206000820151816000015560208201518160010160006101000a81548173ffffffffffffffffffffffffffffffffffffffff021916908373ffffffffffffffffffffffffffffffffffffffff160217905550604082015181600201556060820151816003015560808201518160040160006101000a81548160ff02191690831515021790555060a08201518160040160016101000a81548160ff021916908315150217905550905050600260008673ffffffffffffffffffffffffffffffffffffffff1673ffffffffffffffffffffffffffffffffffffffff168152602001908152602001600020839080600181540180825580915050600190039060005260206000200160009091909190915055600660008154809291906116ef9061231a565b9190505550838160010160008282546117089190612227565b92505081905550827f9f10b53341042c740f503a270027101d06dbabbeffe6c595cc426f6fd4685d1a8686600160405161174493929190612362565b60405180910390a2505092915050565b600073ffffffffffffffffffffffffffffffffffffffff168173ffffffffffffffffffffffffffffffffffffffff16036117c3576040517f08c379a00000000000000000000000000000000000000000000000000000000081526004016117ba90611f06565b60405180910390fd5b60008060008373ffffffffffffffffffffffffffffffffffffffff1673ffffffffffffffffffffffffffffffffffffffff16815260200190815260200160002090508060030160149054906101000a900460ff16611856576040517f08c379a000000000000000000000000000000000000000000000000000000000815260040161184d90612560565b60405180910390fd5b600073ae7ab96520de3a18e5e111b5eaab095312d7fe8473ffffffffffffffffffffffffffffffffffffffff166370a08231306040518263ffffffff1660e01b81526004016118a59190611e07565b602060405180830381865afa1580156118c2573d6000803e3d6000fd5b505050506040513d601f19601f820116820180604052508101906118e69190612601565b905060045481111561195c576000600454826119029190612227565b90506000600454846000015483611919919061262e565b611923919061269f565b9050808460010160008282546119399190612105565b9250508190555080600560008282546119529190612105565b9250508190555050505b4282600201819055508273ffffffffffffffffffffffffffffffffffffffff167f23e1d823874ceb27840409b5cce587a305ffb2d4bcbf64e03a0b7d243d24ecd883600101546040516119af9190611dec565b60405180910390a2505050565b6119c46119fa565b60026119d66119d1611a3b565b611a66565b60000181905550565b60016119f16119ec611a3b565b611a66565b60000181905550565b611a02611a70565b15611a39576040517f3ee5aeb500000000000000000000000000000000000000000000000000000000815260040160405180910390fd5b565b60007f9b779b17422d0df92223018b32b4d1fa46e071723d6817e2486d003becc55f0060001b905090565b6000819050919050565b60006002611a84611a7f611a3b565b611a66565b6000015414905090565b600080fd5b600073ffffffffffffffffffffffffffffffffffffffff82169050919050565b6000611abe82611a93565b9050919050565b611ace81611ab3565b8114611ad957600080fd5b50565b600081359050611aeb81611ac5565b92915050565b600060208284031215611b0757611b06611a8e565b5b6000611b1584828501611adc565b91505092915050565b6000819050919050565b611b3181611b1e565b82525050565b611b4081611ab3565b82525050565b60008115159050919050565b611b5b81611b46565b82525050565b600060a082019050611b766000830188611b28565b611b836020830187611b28565b611b906040830186611b28565b611b9d6060830185611b37565b611baa6080830184611b52565b9695505050505050565b6000819050919050565b611bc781611bb4565b8114611bd257600080fd5b50565b600081359050611be481611bbe565b92915050565b600060208284031215611c0057611bff611a8e565b5b6000611c0e84828501611bd5565b91505092915050565b611c2081611bb4565b82525050565b600060c082019050611c3b6000830189611c17565b611c486020830188611b37565b611c556040830187611b28565b611c626060830186611b28565b611c6f6080830185611b52565b611c7c60a0830184611b52565b979650505050505050565b600081519050919050565b600082825260208201905092915050565b6000819050602082019050919050565b611cbc81611bb4565b82525050565b6000611cce8383611cb3565b60208301905092915050565b6000602082019050919050565b6000611cf282611c87565b611cfc8185611c92565b9350611d0783611ca3565b8060005b83811015611d38578151611d1f8882611cc2565b9750611d2a83611cda565b925050600181019050611d0b565b5085935050505092915050565b60006020820190508181036000830152611d5f8184611ce7565b905092915050565b60008060408385031215611d7e57611d7d611a8e565b5b6000611d8c85828601611bd5565b9250506020611d9d85828601611adc565b9150509250929050565b6000608082019050611dbc6000830187611b28565b611dc96020830186611b28565b611dd66040830185611b28565b611de36060830184611b52565b95945050505050565b6000602082019050611e016000830184611b28565b92915050565b6000602082019050611e1c6000830184611b37565b92915050565b611e2b81611b1e565b8114611e3657600080fd5b50565b600081359050611e4881611e22565b92915050565b60008060408385031215611e6557611e64611a8e565b5b6000611e7385828601611adc565b9250506020611e8485828601611e39565b9150509250929050565b6000602082019050611ea36000830184611c17565b92915050565b600082825260208201905092915050565b7f496e76616c6964206167656e7420616464726573730000000000000000000000600082015250565b6000611ef0601583611ea9565b9150611efb82611eba565b602082019050919050565b60006020820190508181036000830152611f1f81611ee3565b9050919050565b7f4f6e6c79206f776e657200000000000000000000000000000000000000000000600082015250565b6000611f5c600a83611ea9565b9150611f6782611f26565b602082019050919050565b60006020820190508181036000830152611f8b81611f4f565b9050919050565b7f496e76616c696420746f20616464726573730000000000000000000000000000600082015250565b6000611fc8601283611ea9565b9150611fd382611f92565b602082019050919050565b60006020820190508181036000830152611ff781611fbb565b9050919050565b7f52657175657374206e6f7420666f756e64000000000000000000000000000000600082015250565b6000612034601183611ea9565b915061203f82611ffe565b602082019050919050565b6000602082019050818103600083015261206381612027565b9050919050565b7f416c726561647920657865637574656400000000000000000000000000000000600082015250565b60006120a0601083611ea9565b91506120ab8261206a565b602082019050919050565b600060208201905081810360008301526120cf81612093565b9050919050565b7f4e487b7100000000000000000000000000000000000000000000000000000000600052601160045260246000fd5b600061211082611b1e565b915061211b83611b1e565b9250828201905080821115612133576121326120d6565b5b92915050565b7f436f6f6c646f776e206e6f74206d657400000000000000000000000000000000600082015250565b600061216f601083611ea9565b915061217a82612139565b602082019050919050565b6000602082019050818103600083015261219e81612162565b9050919050565b60006040820190506121ba6000830185611b37565b6121c76020830184611b28565b9392505050565b6121d781611b46565b81146121e257600080fd5b50565b6000815190506121f4816121ce565b92915050565b6000602082840312156122105761220f611a8e565b5b600061221e848285016121e5565b91505092915050565b600061223282611b1e565b915061223d83611b1e565b9250828203905081811115612255576122546120d6565b5b92915050565b7f576f756c6420627265616368206d696e696d756d207072696e636970616c0000600082015250565b6000612291601e83611ea9565b915061229c8261225b565b602082019050919050565b600060208201905081810360008301526122c081612284565b9050919050565b600060a0820190506122dc6000830188611b37565b6122e96020830187611b28565b6122f66040830186611b28565b6123036060830185611b28565b6123106080830184611b37565b9695505050505050565b600061232582611b1e565b91507fffffffffffffffffffffffffffffffffffffffffffffffffffffffffffffffff8203612357576123566120d6565b5b600182019050919050565b60006060820190506123776000830186611b37565b6123846020830185611b28565b6123916040830184611b52565b949350505050565b7f5472656173757279206578697374730000000000000000000000000000000000600082015250565b60006123cf600f83611ea9565b91506123da82612399565b602082019050919050565b600060208201905081810360008301526123fe816123c2565b9050919050565b7f42656c6f77206d696e696d756d207072696e636970616c000000000000000000600082015250565b600061243b601783611ea9565b915061244682612405565b602082019050919050565b6000602082019050818103600083015261246a8161242e565b9050919050565b60006060820190506124866000830186611b37565b6124936020830185611b37565b6124a06040830184611b28565b949350505050565b7f4e6f7420617574686f72697a6564206167656e74000000000000000000000000600082015250565b60006124de601483611ea9565b91506124e9826124a8565b602082019050919050565b6000602082019050818103600083015261250d816124d1565b9050919050565b7f5472656173757279206e6f742061637469766500000000000000000000000000600082015250565b600061254a601383611ea9565b915061255582612514565b602082019050919050565b600060208201905081810360008301526125798161253d565b9050919050565b7f496e73756666696369656e74207969656c640000000000000000000000000000600082015250565b60006125b6601283611ea9565b91506125c182612580565b602082019050919050565b600060208201905081810360008301526125e5816125a9565b9050919050565b6000815190506125fb81611e22565b92915050565b60006020828403121561261757612616611a8e565b5b6000612625848285016125ec565b91505092915050565b600061263982611b1e565b915061264483611b1e565b925082820261265281611b1e565b91508282048414831517612669576126686120d6565b5b5092915050565b7f4e487b7100000000000000000000000000000000000000000000000000000000600052601260045260246000fd5b60006126aa82611b1e565b91506126b583611b1e565b9250826126c5576126c4612670565b5b82820490509291505056fea2646970667358221220fdf44e80e1d21f8d010a369e3735dc672dad8b20a4e7335ea5311ec26a00fc6164736f6c63430008140033",
  "linkReferences": {},
  "deployedLinkReferences": {}
}