{
  "_format": "hh-sol-artifact-1",
  "contractName": "StETHAgentTreasury",
  "sourceName": "contracts/StETHAgentTreasury.sol",
  "abi": [
    {
      "inputs": [],
      "stateMutability": "nonpayable",
      "type": "constructor"
    },
    {
      "inputs": [],
      "name": "ReentrancyGuardReentrantCall",
      "type": "error"
    },
    {
      "anonymous": false,
      "inputs": [
        {
          "indexed": true,
          "internalType": "address",
          "name": "agent",
          "type": "address"
        },
        {
          "indexed": false,
          "internalType": "uint256",
          "name": "protectedAmount",
          "type": "uint256"
        }
      ],
      "name": "PrincipalProtected",
      "type": "event"
    },
    {
      "anonymous": false,
      "inputs": [
        {
          "indexed": true,
          "internalType": "address",
          "name": "agent",
          "type": "address"
        },
        {
          "indexed": false,
          "internalType": "uint256",
          "name": "initialDeposit",
          "type": "uint256"
        }
      ],
      "name": "TreasuryCreated",
      "type": "event"
    },
    {
      "anonymous": false,
      "inputs": [
        {
          "indexed": true,
          "internalType": "bytes32",
          "name": "requestId",
          "type": "bytes32"
        },
        {
          "indexed": false,
          "internalType": "address",
          "name": "to",
          "type": "address"
        },
        {
          "indexed": false,
          "internalType": "uint256",
          "name": "amount",
          "type": "uint256"
        }
      ],
      "name": "WithdrawalExecuted",
      "type": "event"
    },
    {
      "anonymous": false,
      "inputs": [
        {
          "indexed": true,
          "internalType": "bytes32",
          "name": "requestId",
          "type": "bytes32"
        },
        {
          "indexed": false,
          "internalType": "address",
          "name": "agent",
          "type": "address"
        },
        {
          "indexed": false,
          "internalType": "uint256",
          "name": "amount",
          "type": "uint256"
        },
        {
          "indexed": false,
          "internalType": "bool",
          "name": "isYield",
          "type": "bool"
        }
      ],
      "name": "WithdrawalRequested",
      "type": "event"
    },
    {
      "anonymous": false,
      "inputs": [
        {
          "indexed": true,
          "internalType": "address",
          "name": "agent",
          "type": "address"
        },
        {
          "indexed": false,
          "internalType": "uint256",
          "name": "yieldAmount",
          "type": "uint256"
        }
      ],
      "name": "YieldAccumulated",
      "type": "event"
    },
    {
      "inputs": [],
      "name": "MIN_PRINCIPAL",
      "outputs": [
        {
          "internalType": "uint256",
          "name": "",
          "type": "uint256"
        }
      ],
      "stateMutability": "view",
      "type": "function"
    },
    {
      "inputs": [],
      "name": "STETH",
      "outputs": [
        {
          "internalType": "address",
          "name": "",
          "type": "address"
        }
      ],
      "stateMutability": "view",
      "type": "function"
    },
    {
      "inputs": [],
      "name": "WSTETH",
      "outputs": [
        {
          "internalType": "address",
          "name": "",
          "type": "address"
        }
      ],
      "stateMutability": "view",
      "type": "function"
    },
    {
      "inputs": [
        {
          "internalType": "address",
          "name": "",
          "type": "address"
        },
        {
          "internalType": "uint256",
          "name": "",
          "type": "uint256"
        }
      ],
      "name": "agentWithdrawals",
      "outputs": [
        {
          "internalType": "bytes32",
          "name": "",
          "type": "bytes32"
        }
      ],
      "stateMutability": "view",
      "type": "function"
    },
    {
      "inputs": [
        {
          "internalType": "bytes32",
          "name": "requestId",
          "type": "bytes32"
        }
      ],
      "name": "cancelWithdrawalRequest",
      "outputs": [],
      "stateMutability": "nonpayable",
      "type": "function"
    },
    {
      "inputs": [
        {
          "internalType": "address",
          "name": "agent",
          "type": "address"
        },
        {
          "internalType": "uint256",
          "name": "initialDeposit",
          "type": "uint256"
        }
      ],
      "name": "createTreasury",
      "outputs": [],
      "stateMutability": "nonpayable",
      "type": "function"
    },
    {
      "inputs": [
        {
          "internalType": "address",
          "name": "agent",
          "type": "address"
        },
        {
          "internalType": "uint256",
          "name": "amount",
          "type": "uint256"
        }
      ],
      "name": "depositToTreasury",
      "outputs": [],
      "stateMutability": "nonpayable",
      "type": "function"
    },
    {
      "inputs": [
        {
          "internalType": "bytes32",
          "name": "requestId",
          "type": "bytes32"
        },
        {
          "internalType": "address",
          "name": "to",
          "type": "address"
        }
      ],
      "name": "executeWithdrawal",
      "outputs": [],
      "stateMutability": "nonpayable",
      "type": "function"
    },
    {
      "inputs": [
        {
          "internalType": "address",
          "name": "agent",
          "type": "address"
        }
      ],
      "name": "getTreasuryInfo",
      "outputs": [
        {
          "internalType": "uint256",
          "name": "principal",
          "type": "uint256"
        },
        {
          "internalType": "uint256",
          "name": "yieldAccumulated",
          "type": "uint256"
        },
        {
          "internalType": "uint256",
          "name": "totalValue",
          "type": "uint256"
        },
        {
          "internalType": "bool",
          "name": "isActive",
          "type": "bool"
        }
      ],
      "stateMutability": "view",
      "type": "function"
    },
    {
      "inputs": [
        {
          "internalType": "address",
          "name": "agent",
          "type": "address"
        }
      ],
      "name": "getWithdrawalHistory",
      "outputs": [
        {
          "internalType": "bytes32[]",
          "name": "",
          "type": "bytes32[]"
        }
      ],
      "stateMutability": "view",
      "type": "function"
    },
    {
      "inputs": [
        {
          "internalType": "bytes32",
          "name": "requestId",
          "type": "bytes32"
        }
      ],
      "name": "getWithdrawalRequest",
      "outputs": [
        {
          "internalType": "address",
          "name": "agent",
          "type": "address"
        },
        {
          "internalType": "uint256",
          "name": "amount",
          "type": "uint256"
        },
        {
          "internalType": "uint256",
          "name": "requestedAt",
          "type": "uint256"
        },
        {
          "internalType": "bool",
          "name": "isYield",
          "type": "bool"
        },
        {
          "internalType": "bool",
          "name": "executed",
          "type": "bool"
        },
        {
          "internalType": "bool",
          "name": "canExecute",
          "type": "bool"
        }
      ],
      "stateMutability": "view",
      "type": "function"
    },
    {
      "inputs": [],
      "name": "owner",
      "outputs": [
        {
          "internalType": "address",
          "name": "",
          "type": "address"
        }
      ],
      "stateMutability": "view",
      "type": "function"
    },
    {
      "inputs": [
        {
          "internalType": "address",
          "name": "agent",
          "type": "address"
        },
        {
          "internalType": "uint256",
          "name": "amount",
          "type": "uint256"
        }
      ],
      "name": "requestPrincipalWithdrawal",
      "outputs": [
        {
          "internalType": "bytes32",
          "name": "requestId",
          "type": "bytes32"
        }
      ],
      "stateMutability": "nonpayable",
      "type": "function"
    },
    {
      "inputs": [
        {
          "internalType": "address",
          "name": "agent",
          "type": "address"
        },
        {
          "internalType": "uint256",
          "name": "amount",
          "type": "uint256"
        }
      ],
      "name": "requestYieldWithdrawal",
      "outputs": [
        {
          "internalType": "bytes32",
          "name": "requestId",
          "type": "bytes32"
        }
      ],
      "stateMutability": "nonpayable",
      "type": "function"
    },
    {
      "inputs": [],
      "name": "totalTreasuryBalance",
      "outputs": [
        {
          "internalType": "uint256",
          "name": "",
          "type": "uint256"
        }
      ],
      "stateMutability": "view",
      "type": "function"
    },
    {
      "inputs": [],
      "name": "totalYieldGenerated",
      "outputs": [
        {
          "internalType": "uint256",
          "name": "",
          "type": "uint256"
        }
      ],
      "stateMutability": "view",
      "type": "function"
    },
    {
      "inputs": [
        {
          "internalType": "address",
          "name": "newOwner",
          "type": "address"
        }
      ],
      "name": "transferOwnership",
      "outputs": [],
      "stateMutability": "nonpayable",
      "type": "function"
    },
    {
      "inputs": [
        {
          "internalType": "address",
          "name": "",
          "type": "address"
        }
      ],
      "name": "treasuries",
      "outputs": [
        {
          "internalType": "uint256",
          "name": "stETHBalance",
          "type": "uint256"
        },
        {
          "internalType": "uint256",
          "name": "yieldAccumulated",
          "type": "uint256"
        },
        {
          "internalType": "uint256",
          "name": "lastYieldUpdate",
          "type": "uint256"
        },
        {
          "internalType": "address",
          "name": "agent",
          "type": "address"
        },
        {
          "internalType": "bool",
          "name": "isActive",
          "type": "bool"
        }
      ],
      "stateMutability": "view",
      "type": "function"
    },
    {
      "inputs": [
        {
          "internalType": "address",
          "name": "agent",
          "type": "address"
        }
      ],
      "name": "updateYield",
      "outputs": [],
      "stateMutability": "nonpayable",
      "type": "function"
    },
    {
      "inputs": [],
      "name": "withdrawalCount",
      "outputs": [
        {
          "internalType": "uint256",
          "name": "",
          "type": "uint256"
        }
      ],
      "stateMutability": "view",
      "type": "function"
    },
    {
      "inputs": [
        {
          "internalType": "bytes32",
          "name": "",
          "type": "bytes32"
        }
      ],
      "name": "withdrawalRequests",
      "outputs": [
        {
          "internalType": "bytes32",
          "name": "id",
          "type": "bytes32"
        },
        {
          "internalType": "address",
          "name": "agent",
          "type": "address"
        },
        {
          "internalType": "uint256",
          "name": "amount",
          "type": "uint256"
        },
        {
          "internalType": "uint256",
          "name": "requestedAt",
          "type": "uint256"
        },
        {
          "internalType": "bool",
          "name": "isYield",
          "type": "bool"
        },
        {
          "internalType": "bool",
          "name": "executed",
          "type": "bool"
        }
      ],
      "stateMutability": "view",
      "type": "function"
    }
  ],
  "bytecode": "0x60806040523480156200001157600080fd5b50600162000034620000286200008260201b60201c565b620000ad60201b60201c565b6000018190555033600360006101000a81548173ffffffffffffffffffffffffffffffffffffffff021916908373ffffffffffffffffffffffffffffffffffffffff160217905550620000b7565b60007f9b779b17422d0df92223018b32b4d1fa46e071723d6817e2486d003becc55f0060001b905090565b6000819050919050565b61310080620000c76000396000f3fe608060405234801561001057600080fd5b50600436106101375760003560e01c8063bb4fd58e116100b8578063db420d9f1161007c578063db420d9f14610387578063e00bfe50146103a3578063ec4a59d9146103c1578063f1345e80146103df578063f2fde38b1461040f578063f90d63db1461042b57610137565b8063bb4fd58e146102cf578063bf85c036146102ff578063c5c03f931461031b578063d030b55114610339578063d9fb643a1461036957610137565b80634d823831116100ff5780634d823831146102265780634f1eb1291461024257806371706cbe146102755780638c825056146102935780638da5cb5b146102b157610137565b80630849b2341461013c578063124b82a514610170578063156e101e146101a55780633114740e146101c15780633e7d48ab146101f1575b600080fd5b61015660048036038101906101519190612346565b610447565b6040516101679594939291906123b6565b60405180910390f35b61018a6004803603810190610185919061243f565b6104aa565b60405161019c9695949392919061247b565b60405180910390f35b6101bf60048036038101906101ba9190612508565b610520565b005b6101db60048036038101906101d69190612346565b610825565b6040516101e89190612606565b60405180910390f35b61020b6004803603810190610206919061243f565b61092b565b60405161021d96959493929190612628565b60405180910390f35b610240600480360381019061023b9190612689565b610a2b565b005b61025c60048036038101906102579190612346565b610def565b60405161026c94939291906126c9565b60405180910390f35b61027d610ede565b60405161028a919061270e565b60405180910390f35b61029b610ee4565b6040516102a8919061270e565b60405180910390f35b6102b9610eea565b6040516102c69190612729565b60405180910390f35b6102e960048036038101906102e49190612508565b610f10565b6040516102f69190612744565b60405180910390f35b6103196004803603810190610314919061243f565b610f41565b005b610323611199565b604051610330919061270e565b60405180910390f35b610353600480360381019061034e9190612508565b6111a5565b6040516103609190612744565b60405180910390f35b61037161153b565b60405161037e9190612729565b60405180910390f35b6103a1600480360381019061039c9190612508565b611553565b005b6103ab6119d2565b6040516103b89190612729565b60405180910390f35b6103c96119ea565b6040516103d6919061270e565b60405180910390f35b6103f960048036038101906103f49190612508565b6119f0565b6040516104069190612744565b60405180910390f35b61042960048036038101906104249190612346565b611e66565b005b61044560048036038101906104409190612346565b611fa9565b005b60006020528060005260406000206000915090508060000154908060010154908060020154908060030160009054906101000a900473ffffffffffffffffffffffffffffffffffffffff16908060030160149054906101000a900460ff16905085565b60016020528060005260406000206000915090508060000154908060010160009054906101000a900473ffffffffffffffffffffffffffffffffffffffff16908060020154908060030154908060040160009054906101000a900460ff16908060040160019054906101000a900460ff16905086565b600360009054906101000a900473ffffffffffffffffffffffffffffffffffffffff1673ffffffffffffffffffffffffffffffffffffffff163373ffffffffffffffffffffffffffffffffffffffff16146105b0576040517f08c379a00000000000000000000000000000000000000000000000000000000081526004016105a7906127bc565b60405180910390fd5b6105b8612211565b600073ffffffffffffffffffffffffffffffffffffffff168273ffffffffffffffffffffffffffffffffffffffff1603610627576040517f08c379a000000000000000000000000000000000000000000000000000000000815260040161061e90612828565b60405180910390fd5b6000811161066a576040517f08c379a000000000000000000000000000000000000000000000000000000000815260040161066190612894565b60405180910390fd5b60008060008473ffffffffffffffffffffffffffffffffffffffff1673ffffffffffffffffffffffffffffffffffffffff16815260200190815260200160002090508060030160149054906101000a900460ff166106fd576040517f08c379a00000000000000000000000000000000000000000000000000000000081526004016106f490612900565b60405180910390fd5b73ae7ab96520de3a18e5e111b5eaab095312d7fe8473ffffffffffffffffffffffffffffffffffffffff166323b872dd3330856040518463ffffffff1660e01b815260040161074e93929190612920565b6020604051808303816000875af115801561076d573d6000803e3d6000fd5b505050506040513d601f19601f820116820180604052508101906107919190612983565b50818160000160008282546107a691906129df565b9250508190555081600460008282546107bf91906129df565b925050819055508273ffffffffffffffffffffffffffffffffffffffff167fbfe3d76e2a11845c74601f77b79c8a0850a3e1425a617cbb80e78afa7897a4498260000154604051610810919061270e565b60405180910390a250610821612234565b5050565b6060600073ffffffffffffffffffffffffffffffffffffffff168273ffffffffffffffffffffffffffffffffffffffff1603610896576040517f08c379a000000000000000000000000000000000000000000000000000000000815260040161088d90612828565b60405180910390fd5b600260008373ffffffffffffffffffffffffffffffffffffffff1673ffffffffffffffffffffffffffffffffffffffff16815260200190815260200160002080548060200260200160405190810160405280929190818152602001828054801561091f57602002820191906000526020600020905b81548152602001906001019080831161090b575b50505050509050919050565b600080600080600080600060016000898152602001908152602001600020905087816000015414610991576040517f08c379a000000000000000000000000000000000000000000000000000000000815260040161098890612a5f565b60405180910390fd5b8060010160009054906101000a900473ffffffffffffffffffffffffffffffffffffffff16965080600201549550806003015494508060040160009054906101000a900460ff1693508060040160019054906101000a900460ff1692508060040160019054906101000a900460ff16158015610a1f5750620151808160030154610a1b91906129df565b4210155b91505091939550919395565b600360009054906101000a900473ffffffffffffffffffffffffffffffffffffffff1673ffffffffffffffffffffffffffffffffffffffff163373ffffffffffffffffffffffffffffffffffffffff1614610abb576040517f08c379a0000000000000000000000000000000000000000000000000000000008152600401610ab2906127bc565b60405180910390fd5b610ac3612211565b600073ffffffffffffffffffffffffffffffffffffffff168173ffffffffffffffffffffffffffffffffffffffff1603610b32576040517f08c379a0000000000000000000000000000000000000000000000000000000008152600401610b2990612acb565b60405180910390fd5b600060016000848152602001908152602001600020905082816000015414610b8f576040517f08c379a0000000000000000000000000000000000000000000000000000000008152600401610b8690612a5f565b60405180910390fd5b8060040160019054906101000a900460ff1615610be1576040517f08c379a0000000000000000000000000000000000000000000000000000000008152600401610bd890612b37565b60405180910390fd5b620151808160030154610bf491906129df565b421015610c36576040517f08c379a0000000000000000000000000000000000000000000000000000000008152600401610c2d90612ba3565b60405180910390fd5b60018160040160016101000a81548160ff02191690831515021790555073ae7ab96520de3a18e5e111b5eaab095312d7fe8473ffffffffffffffffffffffffffffffffffffffff1663a9059cbb8383600201546040518363ffffffff1660e01b8152600401610ca6929190612bc3565b6020604051808303816000875af1158015610cc5573d6000803e3d6000fd5b505050506040513d601f19601f82011682018060405250810190610ce99190612983565b508060040160009054906101000a900460ff16610da45760008060008360010160009054906101000a900473ffffffffffffffffffffffffffffffffffffffff1673ffffffffffffffffffffffffffffffffffffffff1673ffffffffffffffffffffffffffffffffffffffff16815260200190815260200160002090508160020154816000016000828254610d7e9190612bec565b92505081905550816002015460046000828254610d9b9190612bec565b92505081905550505b827f9b500c765f0aa508908d3e165168183a5cef5acd68573acc126ce58c80ac6b3c838360020154604051610dda929190612bc3565b60405180910390a250610deb612234565b5050565b600080600080600073ffffffffffffffffffffffffffffffffffffffff168573ffffffffffffffffffffffffffffffffffffffff1603610e64576040517f08c379a0000000000000000000000000000000000000000000000000000000008152600401610e5b90612828565b60405180910390fd5b60008060008773ffffffffffffffffffffffffffffffffffffffff1673ffffffffffffffffffffffffffffffffffffffff168152602001908152602001600020905080600001549450806001015493508385610ec091906129df565b92508060030160149054906101000a900460ff169150509193509193565b60065481565b60055481565b600360009054906101000a900473ffffffffffffffffffffffffffffffffffffffff1681565b60026020528160005260406000208181548110610f2c57600080fd5b90600052602060002001600091509150505481565b600060016000838152602001908152602001600020905081816000015414610f9e576040517f08c379a0000000000000000000000000000000000000000000000000000000008152600401610f9590612a5f565b60405180910390fd5b8060040160019054906101000a900460ff1615610ff0576040517f08c379a0000000000000000000000000000000000000000000000000000000008152600401610fe790612b37565b60405180910390fd5b600360009054906101000a900473ffffffffffffffffffffffffffffffffffffffff1673ffffffffffffffffffffffffffffffffffffffff163373ffffffffffffffffffffffffffffffffffffffff16148061109b57508060010160009054906101000a900473ffffffffffffffffffffffffffffffffffffffff1673ffffffffffffffffffffffffffffffffffffffff163373ffffffffffffffffffffffffffffffffffffffff16145b6110da576040517f08c379a00000000000000000000000000000000000000000000000000000000081526004016110d190612c6c565b60405180910390fd5b8060040160009054906101000a900460ff16156111785760008060008360010160009054906101000a900473ffffffffffffffffffffffffffffffffffffffff1673ffffffffffffffffffffffffffffffffffffffff1673ffffffffffffffffffffffffffffffffffffffff1681526020019081526020016000209050816002015481600101600082825461116f91906129df565b92505081905550505b60018160040160016101000a81548160ff0219169083151502179055505050565b67016345785d8a000081565b6000600360009054906101000a900473ffffffffffffffffffffffffffffffffffffffff1673ffffffffffffffffffffffffffffffffffffffff163373ffffffffffffffffffffffffffffffffffffffff1614611237576040517f08c379a000000000000000000000000000000000000000000000000000000000815260040161122e906127bc565b60405180910390fd5b600073ffffffffffffffffffffffffffffffffffffffff168373ffffffffffffffffffffffffffffffffffffffff16036112a6576040517f08c379a000000000000000000000000000000000000000000000000000000000815260040161129d90612828565b60405180910390fd5b60008060008573ffffffffffffffffffffffffffffffffffffffff1673ffffffffffffffffffffffffffffffffffffffff168152602001908152602001600020905067016345785d8a00008382600001546113019190612bec565b1015611342576040517f08c379a000000000000000000000000000000000000000000000000000000000815260040161133990612cd8565b60405180910390fd5b8383426006543360405160200161135d959493929190612cf8565b6040516020818303038152906040528051906020012091506040518060c001604052808381526020018573ffffffffffffffffffffffffffffffffffffffff16815260200184815260200142815260200160001515815260200160001515815250600160008481526020019081526020016000206000820151816000015560208201518160010160006101000a81548173ffffffffffffffffffffffffffffffffffffffff021916908373ffffffffffffffffffffffffffffffffffffffff160217905550604082015181600201556060820151816003015560808201518160040160006101000a81548160ff02191690831515021790555060a08201518160040160016101000a81548160ff021916908315150217905550905050600260008573ffffffffffffffffffffffffffffffffffffffff1673ffffffffffffffffffffffffffffffffffffffff168152602001908152602001600020829080600181540180825580915050600190039060005260206000200160009091909190915055600660008154809291906114f290612d4b565b9190505550817f9f10b53341042c740f503a270027101d06dbabbeffe6c595cc426f6fd4685d1a8585600060405161152c93929190612d93565b60405180910390a25092915050565b737f39c581f595b53c5cb19bd0b3f8da6c935e2ca081565b600360009054906101000a900473ffffffffffffffffffffffffffffffffffffffff1673ffffffffffffffffffffffffffffffffffffffff163373ffffffffffffffffffffffffffffffffffffffff16146115e3576040517f08c379a00000000000000000000000000000000000000000000000000000000081526004016115da906127bc565b60405180910390fd5b6115eb612211565b600073ffffffffffffffffffffffffffffffffffffffff168273ffffffffffffffffffffffffffffffffffffffff160361165a576040517f08c379a000000000000000000000000000000000000000000000000000000000815260040161165190612828565b60405180910390fd5b600073ffffffffffffffffffffffffffffffffffffffff166000808473ffffffffffffffffffffffffffffffffffffffff1673ffffffffffffffffffffffffffffffffffffffff16815260200190815260200160002060030160009054906101000a900473ffffffffffffffffffffffffffffffffffffffff1673ffffffffffffffffffffffffffffffffffffffff161461172a576040517f08c379a000000000000000000000000000000000000000000000000000000000815260040161172190612e16565b60405180910390fd5b67016345785d8a0000811015611775576040517f08c379a000000000000000000000000000000000000000000000000000000000815260040161176c90612e82565b60405180910390fd5b73ae7ab96520de3a18e5e111b5eaab095312d7fe8473ffffffffffffffffffffffffffffffffffffffff166323b872dd3330846040518463ffffffff1660e01b81526004016117c693929190612920565b6020604051808303816000875af11580156117e5573d6000803e3d6000fd5b505050506040513d601f19601f820116820180604052508101906118099190612983565b506040518060a00160405280828152602001600081526020014281526020018373ffffffffffffffffffffffffffffffffffffffff168152602001600115158152506000808473ffffffffffffffffffffffffffffffffffffffff1673ffffffffffffffffffffffffffffffffffffffff16815260200190815260200160002060008201518160000155602082015181600101556040820151816002015560608201518160030160006101000a81548173ffffffffffffffffffffffffffffffffffffffff021916908373ffffffffffffffffffffffffffffffffffffffff16021790555060808201518160030160146101000a81548160ff021916908315150217905550905050806004600082825461192391906129df565b925050819055508173ffffffffffffffffffffffffffffffffffffffff167f240dea6095d75c2ab619885ef444422f04090259dc92bbe4b73fdb59f598981a82604051611970919061270e565b60405180910390a28173ffffffffffffffffffffffffffffffffffffffff167fbfe3d76e2a11845c74601f77b79c8a0850a3e1425a617cbb80e78afa7897a449826040516119be919061270e565b60405180910390a26119ce612234565b5050565b73ae7ab96520de3a18e5e111b5eaab095312d7fe8481565b60045481565b6000823373ffffffffffffffffffffffffffffffffffffffff166000808373ffffffffffffffffffffffffffffffffffffffff1673ffffffffffffffffffffffffffffffffffffffff16815260200190815260200160002060030160009054906101000a900473ffffffffffffffffffffffffffffffffffffffff1673ffffffffffffffffffffffffffffffffffffffff1614611ac2576040517f08c379a0000000000000000000000000000000000000000000000000000000008152600401611ab990612eee565b60405180910390fd5b6000808273ffffffffffffffffffffffffffffffffffffffff1673ffffffffffffffffffffffffffffffffffffffff16815260200190815260200160002060030160149054906101000a900460ff16611b50576040517f08c379a0000000000000000000000000000000000000000000000000000000008152600401611b4790612900565b60405180910390fd5b600073ffffffffffffffffffffffffffffffffffffffff168473ffffffffffffffffffffffffffffffffffffffff1603611bbf576040517f08c379a0000000000000000000000000000000000000000000000000000000008152600401611bb690612828565b60405180910390fd5b60008060008673ffffffffffffffffffffffffffffffffffffffff1673ffffffffffffffffffffffffffffffffffffffff1681526020019081526020016000209050611c0a85611fa9565b8381600101541015611c51576040517f08c379a0000000000000000000000000000000000000000000000000000000008152600401611c4890612f5a565b60405180910390fd5b84844260065433604051602001611c6c959493929190612cf8565b6040516020818303038152906040528051906020012092506040518060c001604052808481526020018673ffffffffffffffffffffffffffffffffffffffff16815260200185815260200142815260200160011515815260200160001515815250600160008581526020019081526020016000206000820151816000015560208201518160010160006101000a81548173ffffffffffffffffffffffffffffffffffffffff021916908373ffffffffffffffffffffffffffffffffffffffff160217905550604082015181600201556060820151816003015560808201518160040160006101000a81548160ff02191690831515021790555060a08201518160040160016101000a81548160ff021916908315150217905550905050600260008673ffffffffffffffffffffffffffffffffffffffff1673ffffffffffffffffffffffffffffffffffffffff16815260200190815260200160002083908060018154018082558091505060019003906000526020600020016000909190919091505560066000815480929190611e0190612d4b565b919050555083816001016000828254611e1a9190612bec565b92505081905550827f9f10b53341042c740f503a270027101d06dbabbeffe6c595cc426f6fd4685d1a86866001604051611e5693929190612d93565b60405180910390a2505092915050565b600360009054906101000a900473ffffffffffffffffffffffffffffffffffffffff1673ffffffffffffffffffffffffffffffffffffffff163373ffffffffffffffffffffffffffffffffffffffff1614611ef6576040517f08c379a0000000000000000000000000000000000000000000000000000000008152600401611eed906127bc565b60405180910390fd5b600073ffffffffffffffffffffffffffffffffffffffff168173ffffffffffffffffffffffffffffffffffffffff1603611f65576040517f08c379a0000000000000000000000000000000000000000000000000000000008152600401611f5c90612fc6565b60405180910390fd5b80600360006101000a81548173ffffffffffffffffffffffffffffffffffffffff021916908373ffffffffffffffffffffffffffffffffffffffff16021790555050565b600073ffffffffffffffffffffffffffffffffffffffff168173ffffffffffffffffffffffffffffffffffffffff1603612018576040517f08c379a000000000000000000000000000000000000000000000000000000000815260040161200f90612828565b60405180910390fd5b60008060008373ffffffffffffffffffffffffffffffffffffffff1673ffffffffffffffffffffffffffffffffffffffff16815260200190815260200160002090508060030160149054906101000a900460ff166120ab576040517f08c379a00000000000000000000000000000000000000000000000000000000081526004016120a290612900565b60405180910390fd5b600073ae7ab96520de3a18e5e111b5eaab095312d7fe8473ffffffffffffffffffffffffffffffffffffffff166370a08231306040518263ffffffff1660e01b81526004016120fa9190612729565b602060405180830381865afa158015612117573d6000803e3d6000fd5b505050506040513d601f19601f8201168201806040525081019061213b9190612ffb565b90506004548111156121b1576000600454826121579190612bec565b9050600060045484600001548361216e9190613028565b6121789190613099565b90508084600101600082825461218e91906129df565b9250508190555080600560008282546121a791906129df565b9250508190555050505b4282600201819055508273ffffffffffffffffffffffffffffffffffffffff167f23e1d823874ceb27840409b5cce587a305ffb2d4bcbf64e03a0b7d243d24ecd88360010154604051612204919061270e565b60405180910390a2505050565b61221961224f565b600261222b612226612290565b6122bb565b60000181905550565b6001612246612241612290565b6122bb565b60000181905550565b6122576122c5565b1561228e576040517f3ee5aeb500000000000000000000000000000000000000000000000000000000815260040160405180910390fd5b565b60007f9b779b17422d0df92223018b32b4d1fa46e071723d6817e2486d003becc55f0060001b905090565b6000819050919050565b600060026122d96122d4612290565b6122bb565b6000015414905090565b600080fd5b600073ffffffffffffffffffffffffffffffffffffffff82169050919050565b6000612313826122e8565b9050919050565b61232381612308565b811461232e57600080fd5b50565b6000813590506123408161231a565b92915050565b60006020828403121561235c5761235b6122e3565b5b600061236a84828501612331565b91505092915050565b6000819050919050565b61238681612373565b82525050565b61239581612308565b82525050565b60008115159050919050565b6123b08161239b565b82525050565b600060a0820190506123cb600083018861237d565b6123d8602083018761237d565b6123e5604083018661237d565b6123f2606083018561238c565b6123ff60808301846123a7565b9695505050505050565b6000819050919050565b61241c81612409565b811461242757600080fd5b50565b60008135905061243981612413565b92915050565b600060208284031215612455576124546122e3565b5b60006124638482850161242a565b91505092915050565b61247581612409565b82525050565b600060c082019050612490600083018961246c565b61249d602083018861238c565b6124aa604083018761237d565b6124b7606083018661237d565b6124c460808301856123a7565b6124d160a08301846123a7565b979650505050505050565b6124e581612373565b81146124f057600080fd5b50565b600081359050612502816124dc565b92915050565b6000806040838503121561251f5761251e6122e3565b5b600061252d85828601612331565b925050602061253e858286016124f3565b9150509250929050565b600081519050919050565b600082825260208201905092915050565b6000819050602082019050919050565b61257d81612409565b82525050565b600061258f8383612574565b60208301905092915050565b6000602082019050919050565b60006125b382612548565b6125bd8185612553565b93506125c883612564565b8060005b838110156125f95781516125e08882612583565b97506125eb8361259b565b9250506001810190506125cc565b5085935050505092915050565b6000602082019050818103600083015261262081846125a8565b905092915050565b600060c08201905061263d600083018961238c565b61264a602083018861237d565b612657604083018761237d565b61266460608301866123a7565b61267160808301856123a7565b61267e60a08301846123a7565b979650505050505050565b600080604083850312156126a05761269f6122e3565b5b60006126ae8582860161242a565b92505060206126bf85828601612331565b9150509250929050565b60006080820190506126de600083018761237d565b6126eb602083018661237d565b6126f8604083018561237d565b61270560608301846123a7565b95945050505050565b6000602082019050612723600083018461237d565b92915050565b600060208201905061273e600083018461238c565b92915050565b6000602082019050612759600083018461246c565b92915050565b600082825260208201905092915050565b7f4f6e6c79206f776e657200000000000000000000000000000000000000000000600082015250565b60006127a6600a8361275f565b91506127b182612770565b602082019050919050565b600060208201905081810360008301526127d581612799565b9050919050565b7f496e76616c6964206167656e7420616464726573730000000000000000000000600082015250565b600061281260158361275f565b915061281d826127dc565b602082019050919050565b6000602082019050818103600083015261284181612805565b9050919050565b7f416d6f756e74206d7573742062652067726561746572207468616e2030000000600082015250565b600061287e601d8361275f565b915061288982612848565b602082019050919050565b600060208201905081810360008301526128ad81612871565b9050919050565b7f5472656173757279206e6f742061637469766500000000000000000000000000600082015250565b60006128ea60138361275f565b91506128f5826128b4565b602082019050919050565b60006020820190508181036000830152612919816128dd565b9050919050565b6000606082019050612935600083018661238c565b612942602083018561238c565b61294f604083018461237d565b949350505050565b6129608161239b565b811461296b57600080fd5b50565b60008151905061297d81612957565b92915050565b600060208284031215612999576129986122e3565b5b60006129a78482850161296e565b91505092915050565b7f4e487b7100000000000000000000000000000000000000000000000000000000600052601160045260246000fd5b60006129ea82612373565b91506129f583612373565b9250828201905080821115612a0d57612a0c6129b0565b5b92915050565b7f52657175657374206e6f7420666f756e64000000000000000000000000000000600082015250565b6000612a4960118361275f565b9150612a5482612a13565b602082019050919050565b60006020820190508181036000830152612a7881612a3c565b9050919050565b7f496e76616c696420746f20616464726573730000000000000000000000000000600082015250565b6000612ab560128361275f565b9150612ac082612a7f565b602082019050919050565b60006020820190508181036000830152612ae481612aa8565b9050919050565b7f416c726561647920657865637574656400000000000000000000000000000000600082015250565b6000612b2160108361275f565b9150612b2c82612aeb565b602082019050919050565b60006020820190508181036000830152612b5081612b14565b9050919050565b7f436f6f6c646f776e206e6f74206d657400000000000000000000000000000000600082015250565b6000612b8d60108361275f565b9150612b9882612b57565b602082019050919050565b60006020820190508181036000830152612bbc81612b80565b9050919050565b6000604082019050612bd8600083018561238c565b612be5602083018461237d565b9392505050565b6000612bf782612373565b9150612c0283612373565b9250828203905081811115612c1a57612c196129b0565b5b92915050565b7f4e6f7420617574686f72697a6564000000000000000000000000000000000000600082015250565b6000612c56600e8361275f565b9150612c6182612c20565b602082019050919050565b60006020820190508181036000830152612c8581612c49565b9050919050565b7f576f756c6420627265616368206d696e696d756d207072696e636970616c0000600082015250565b6000612cc2601e8361275f565b9150612ccd82612c8c565b602082019050919050565b60006020820190508181036000830152612cf181612cb5565b9050919050565b600060a082019050612d0d600083018861238c565b612d1a602083018761237d565b612d27604083018661237d565b612d34606083018561237d565b612d41608083018461238c565b9695505050505050565b6000612d5682612373565b91507fffffffffffffffffffffffffffffffffffffffffffffffffffffffffffffffff8203612d8857612d876129b0565b5b600182019050919050565b6000606082019050612da8600083018661238c565b612db5602083018561237d565b612dc260408301846123a7565b949350505050565b7f5472656173757279206578697374730000000000000000000000000000000000600082015250565b6000612e00600f8361275f565b9150612e0b82612dca565b602082019050919050565b60006020820190508181036000830152612e2f81612df3565b9050919050565b7f42656c6f77206d696e696d756d207072696e636970616c000000000000000000600082015250565b6000612e6c60178361275f565b9150612e7782612e36565b602082019050919050565b60006020820190508181036000830152612e9b81612e5f565b9050919050565b7f4e6f7420617574686f72697a6564206167656e74000000000000000000000000600082015250565b6000612ed860148361275f565b9150612ee382612ea2565b602082019050919050565b60006020820190508181036000830152612f0781612ecb565b9050919050565b7f496e73756666696369656e74207969656c640000000000000000000000000000600082015250565b6000612f4460128361275f565b9150612f4f82612f0e565b602082019050919050565b60006020820190508181036000830152612f7381612f37565b9050919050565b7f496e76616c6964206e6577206f776e6572000000000000000000000000000000600082015250565b6000612fb060118361275f565b9150612fbb82612f7a565b602082019050919050565b60006020820190508181036000830152612fdf81612fa3565b9050919050565b600081519050612ff5816124dc565b92915050565b600060208284031215613011576130106122e3565b5b600061301f84828501612fe6565b91505092915050565b600061303382612373565b915061303e83612373565b925082820261304c81612373565b91508282048414831517613063576130626129b0565b5b5092915050565b7f4e487b7100000000000000000000000000000000000000000000000000000000600052601260045260246000fd5b60006130a482612373565b91506130af83612373565b9250826130bf576130be61306a565b5b82820490509291505056fea264697066735822122062e931ad02f0ae4a5a11db463fce728ca0a37c606d946e4a93eca6a907d00be464736f6c63430008140033",
  "linkReferences": {},
  "deployedLinkReferences": {}
}